{
  "_format": "hh-sol-artifact-1",
  "contractName": "PasswordManager",
  "sourceName": "contracts/PasswordManager.sol",
  "abi": [
    {
      "anonymous": false,
      "inputs": [
        {
          "indexed": true,
          "internalType": "address",
          "name": "user",
          "type": "address"
        },
        {
          "indexed": false,
          "internalType": "string",
          "name": "password",
          "type": "string"
        }
      ],
      "name": "PasswordRetrieved",
      "type": "event"
    },
    {
      "anonymous": false,
      "inputs": [
        {
          "indexed": true,
          "internalType": "address",
          "name": "user",
          "type": "address"
        },
        {
          "indexed": false,
          "internalType": "string",
          "name": "password",
          "type": "string"
        }
      ],
      "name": "PasswordSaved",
      "type": "event"
    },
    {
      "inputs": [],
      "name": "getPassword",
      "outputs": [
        {
          "internalType": "string",
          "name": "",
          "type": "string"
        }
      ],
      "stateMutability": "view",
      "type": "function"
    },
    {
      "inputs": [
        {
          "internalType": "string",
          "name": "password",
          "type": "string"
        }
      ],
      "name": "savePassword",
      "outputs": [],
      "stateMutability": "nonpayable",
      "type": "function"
    }
  ],
  "bytecode": "0x608060405234801561001057600080fd5b5061054a806100206000396000f3fe608060405234801561001057600080fd5b50600436106100365760003560e01c8063cc8e23941461003b578063fbe5c37114610059575b600080fd5b610043610075565b604051610050919061036c565b60405180910390f35b610073600480360381019061006e91906102f2565b610143565b005b60606000803373ffffffffffffffffffffffffffffffffffffffff1673ffffffffffffffffffffffffffffffffffffffff16815260200190815260200160002080546100c090610442565b80601f01602080910402602001604051908101604052809291908181526020018280546100ec90610442565b80156101395780601f1061010e57610100808354040283529160200191610139565b820191906000526020600020905b81548152906001019060200180831161011c57829003601f168201915b5050505050905090565b806000803373ffffffffffffffffffffffffffffffffffffffff1673ffffffffffffffffffffffffffffffffffffffff16815260200190815260200160002090805190602001906101959291906101e7565b503373ffffffffffffffffffffffffffffffffffffffff167f7c69b241c0ad491d41d646a0702d095266a8b052cc9628d037e98b1687baf3fc826040516101dc919061036c565b60405180910390a250565b8280546101f390610442565b90600052602060002090601f016020900481019282610215576000855561025c565b82601f1061022e57805160ff191683800117855561025c565b8280016001018555821561025c579182015b8281111561025b578251825591602001919060010190610240565b5b509050610269919061026d565b5090565b5b8082111561028657600081600090555060010161026e565b5090565b600061029d610298846103b3565b61038e565b9050828152602081018484840111156102b557600080fd5b6102c0848285610400565b509392505050565b600082601f8301126102d957600080fd5b81356102e984826020860161028a565b91505092915050565b60006020828403121561030457600080fd5b600082013567ffffffffffffffff81111561031e57600080fd5b61032a848285016102c8565b91505092915050565b600061033e826103e4565b61034881856103ef565b935061035881856020860161040f565b61036181610503565b840191505092915050565b600060208201905081810360008301526103868184610333565b905092915050565b60006103986103a9565b90506103a48282610474565b919050565b6000604051905090565b600067ffffffffffffffff8211156103ce576103cd6104d4565b5b6103d782610503565b9050602081019050919050565b600081519050919050565b600082825260208201905092915050565b82818337600083830152505050565b60005b8381101561042d578082015181840152602081019050610412565b8381111561043c576000848401525b50505050565b6000600282049050600182168061045a57607f821691505b6020821081141561046e5761046d6104a5565b5b50919050565b61047d82610503565b810181811067ffffffffffffffff8211171561049c5761049b6104d4565b5b80604052505050565b7f4e487b7100000000000000000000000000000000000000000000000000000000600052602260045260246000fd5b7f4e487b7100000000000000000000000000000000000000000000000000000000600052604160045260246000fd5b6000601f19601f830116905091905056fea2646970667358221220bddd52c7db4723f358ae3cc42a450505d062c052d0fac3db6f9609def69f827e64736f6c63430008040033",
  "linkReferences": {},
  "deployedLinkReferences": {}
}